{
  "contractName": "ControlDevices",
  "abi": [
    {
      "inputs": [],
      "stateMutability": "nonpayable",
      "type": "constructor"
    },
    {
      "anonymous": false,
      "inputs": [
        {
          "indexed": false,
          "internalType": "string",
          "name": "name",
          "type": "string"
        }
      ],
      "name": "device_event",
      "type": "event"
    },
    {
      "inputs": [
        {
          "internalType": "uint256",
          "name": "",
          "type": "uint256"
        }
      ],
      "name": "Devices",
      "outputs": [
        {
          "internalType": "string",
          "name": "name",
          "type": "string"
        },
        {
          "internalType": "bool",
          "name": "status",
          "type": "bool"
        }
      ],
      "stateMutability": "view",
      "type": "function"
    },
    {
      "inputs": [],
      "name": "id",
      "outputs": [
        {
          "internalType": "uint256",
          "name": "",
          "type": "uint256"
        }
      ],
      "stateMutability": "view",
      "type": "function"
    },
    {
      "inputs": [],
      "name": "owner",
      "outputs": [
        {
          "internalType": "address",
          "name": "",
          "type": "address"
        }
      ],
      "stateMutability": "view",
      "type": "function"
    },
    {
      "inputs": [
        {
          "internalType": "string",
          "name": "device_name",
          "type": "string"
        }
      ],
      "name": "add_device",
      "outputs": [],
      "stateMutability": "nonpayable",
      "type": "function"
    },
    {
      "inputs": [
        {
          "internalType": "uint256",
          "name": "_id",
          "type": "uint256"
        }
      ],
      "name": "remove_device",
      "outputs": [],
      "stateMutability": "nonpayable",
      "type": "function"
    },
    {
      "inputs": [
        {
          "components": [
            {
              "internalType": "string",
              "name": "name",
              "type": "string"
            },
            {
              "internalType": "bool",
              "name": "status",
              "type": "bool"
            }
          ],
          "internalType": "struct ControlDevices.device",
          "name": "d",
          "type": "tuple"
        }
      ],
      "name": "device_status",
      "outputs": [
        {
          "internalType": "bool",
          "name": "",
          "type": "bool"
        }
      ],
      "stateMutability": "view",
      "type": "function"
    },
    {
      "inputs": [
        {
          "components": [
            {
              "internalType": "string",
              "name": "name",
              "type": "string"
            },
            {
              "internalType": "bool",
              "name": "status",
              "type": "bool"
            }
          ],
          "internalType": "struct ControlDevices.device",
          "name": "d",
          "type": "tuple"
        }
      ],
      "name": "change_device_status",
      "outputs": [],
      "stateMutability": "view",
      "type": "function"
    },
    {
      "inputs": [
        {
          "internalType": "uint256",
          "name": "_id",
          "type": "uint256"
        }
      ],
      "name": "device_mapping_test",
      "outputs": [],
      "stateMutability": "nonpayable",
      "type": "function"
    }
  ],
  "bytecode": "0x6080604052600060015534801561001557600080fd5b50336000806101000a81548173ffffffffffffffffffffffffffffffffffffffff021916908373ffffffffffffffffffffffffffffffffffffffff160217905550610c44806100656000396000f3fe608060405234801561001057600080fd5b50600436106100885760003560e01c8063af640d0f1161005b578063af640d0f146100ff578063be5fb2121461011d578063d709883e14610139578063f073b8851461016a57610088565b80630e34137c1461008d5780631b93021a146100a95780637a025b2c146100c55780638da5cb5b146100e1575b600080fd5b6100a760048036038101906100a29190610773565b61019a565b005b6100c360048036038101906100be91906107f2565b610274565b005b6100df60048036038101906100da91906108cd565b6102c3565b005b6100e9610357565b6040516100f69190610957565b60405180910390f35b61010761037b565b6040516101149190610981565b60405180910390f35b610137600480360381019061013291906107f2565b610381565b005b610153600480360381019061014e91906107f2565b610416565b604051610161929190610a33565b60405180910390f35b610184600480360381019061017f91906108cd565b6104cf565b6040516101919190610a63565b60405180910390f35b60008054906101000a900473ffffffffffffffffffffffffffffffffffffffff1673ffffffffffffffffffffffffffffffffffffffff163373ffffffffffffffffffffffffffffffffffffffff16146101f257600080fd5b6040518060400160405280828152602001600015158152506002600060016000815461021d90610aad565b9190508190558152602001908152602001600020600082015181600001908051906020019061024d929190610536565b5060208201518160010160006101000a81548160ff02191690831515021790555090505050565b7f536e4b2da47fcadecd3c90e4accf176fd84a07c737b3a5052da223ec03a5acc1600260008381526020019081526020016000206000016040516102b89190610bec565b60405180910390a150565b60008054906101000a900473ffffffffffffffffffffffffffffffffffffffff1673ffffffffffffffffffffffffffffffffffffffff163373ffffffffffffffffffffffffffffffffffffffff161461031b57600080fd5b60011515816020015115151415610342576000816020019015159081151581525050610354565b60018160200190151590811515815250505b50565b60008054906101000a900473ffffffffffffffffffffffffffffffffffffffff1681565b60015481565b60008054906101000a900473ffffffffffffffffffffffffffffffffffffffff1673ffffffffffffffffffffffffffffffffffffffff163373ffffffffffffffffffffffffffffffffffffffff16146103d957600080fd5b60026000828152602001908152602001600020600080820160006103fd91906105bc565b6001820160006101000a81549060ff0219169055505050565b600260205280600052604060002060009150905080600001805461043990610b25565b80601f016020809104026020016040519081016040528092919081815260200182805461046590610b25565b80156104b25780601f10610487576101008083540402835291602001916104b2565b820191906000526020600020905b81548152906001019060200180831161049557829003601f168201915b5050505050908060010160009054906101000a900460ff16905082565b60008060009054906101000a900473ffffffffffffffffffffffffffffffffffffffff1673ffffffffffffffffffffffffffffffffffffffff163373ffffffffffffffffffffffffffffffffffffffff161461052a57600080fd5b81602001519050919050565b82805461054290610b25565b90600052602060002090601f01602090048101928261056457600085556105ab565b82601f1061057d57805160ff19168380011785556105ab565b828001600101855582156105ab579182015b828111156105aa57825182559160200191906001019061058f565b5b5090506105b891906105fc565b5090565b5080546105c890610b25565b6000825580601f106105da57506105f9565b601f0160209004906000526020600020908101906105f891906105fc565b5b50565b5b808211156106155760008160009055506001016105fd565b5090565b6000604051905090565b600080fd5b600080fd5b600080fd5b600080fd5b6000601f19601f8301169050919050565b7f4e487b7100000000000000000000000000000000000000000000000000000000600052604160045260246000fd5b61068082610637565b810181811067ffffffffffffffff8211171561069f5761069e610648565b5b80604052505050565b60006106b2610619565b90506106be8282610677565b919050565b600067ffffffffffffffff8211156106de576106dd610648565b5b6106e782610637565b9050602081019050919050565b82818337600083830152505050565b6000610716610711846106c3565b6106a8565b90508281526020810184848401111561073257610731610632565b5b61073d8482856106f4565b509392505050565b600082601f83011261075a5761075961062d565b5b813561076a848260208601610703565b91505092915050565b60006020828403121561078957610788610623565b5b600082013567ffffffffffffffff8111156107a7576107a6610628565b5b6107b384828501610745565b91505092915050565b6000819050919050565b6107cf816107bc565b81146107da57600080fd5b50565b6000813590506107ec816107c6565b92915050565b60006020828403121561080857610807610623565b5b6000610816848285016107dd565b91505092915050565b600080fd5b600080fd5b60008115159050919050565b61083e81610829565b811461084957600080fd5b50565b60008135905061085b81610835565b92915050565b6000604082840312156108775761087661081f565b5b61088160406106a8565b9050600082013567ffffffffffffffff8111156108a1576108a0610824565b5b6108ad84828501610745565b60008301525060206108c18482850161084c565b60208301525092915050565b6000602082840312156108e3576108e2610623565b5b600082013567ffffffffffffffff81111561090157610900610628565b5b61090d84828501610861565b91505092915050565b600073ffffffffffffffffffffffffffffffffffffffff82169050919050565b600061094182610916565b9050919050565b61095181610936565b82525050565b600060208201905061096c6000830184610948565b92915050565b61097b816107bc565b82525050565b60006020820190506109966000830184610972565b92915050565b600081519050919050565b600082825260208201905092915050565b60005b838110156109d65780820151818401526020810190506109bb565b838111156109e5576000848401525b50505050565b60006109f68261099c565b610a0081856109a7565b9350610a108185602086016109b8565b610a1981610637565b840191505092915050565b610a2d81610829565b82525050565b60006040820190508181036000830152610a4d81856109eb565b9050610a5c6020830184610a24565b9392505050565b6000602082019050610a786000830184610a24565b92915050565b7f4e487b7100000000000000000000000000000000000000000000000000000000600052601160045260246000fd5b6000610ab8826107bc565b91507fffffffffffffffffffffffffffffffffffffffffffffffffffffffffffffffff821415610aeb57610aea610a7e565b5b600182019050919050565b7f4e487b7100000000000000000000000000000000000000000000000000000000600052602260045260246000fd5b60006002820490506001821680610b3d57607f821691505b60208210811415610b5157610b50610af6565b5b50919050565b60008190508160005260206000209050919050565b60008154610b7981610b25565b610b8381866109a7565b94506001821660008114610b9e5760018114610bb057610be3565b60ff1983168652602086019350610be3565b610bb985610b57565b60005b83811015610bdb57815481890152600182019150602081019050610bbc565b808801955050505b50505092915050565b60006020820190508181036000830152610c068184610b6c565b90509291505056fea2646970667358221220d373c6294d937f010a0f5558866f6e7c4ecc0271701501541c1205fd9d54cd4d64736f6c634300080c0033",
  "immutableReferences": {},
  "source": "// SPDX-License-Identifier: MIT\npragma solidity ^0.8.12;\n\ncontract ControlDevices {\n\n    address public owner;  \n    uint public id = 0;\n\n    event device_event(string name);\n\n    // sensor that will contains name and status sent by our device\n    \n    struct device{\n        string name;\n        bool status;\n    }\n    \n    // map to store our data with device info in it\n    \n    mapping(uint=>device) public Devices;\n    \n    // setting the owner\n    \n    constructor() {\n       owner = msg.sender;\n    }\n\n    // adding the device \n\n    function add_device(string memory device_name) public{\n        require(msg.sender == owner);\n        Devices[++id] = device(device_name, false);\n    }\n\n    // removing the device \n\n    function remove_device(uint _id) public{\n        require(msg.sender == owner);\n\n        delete Devices[_id];\n    }\n    \n    // checking the status of device whether it's on or off\n    \n    function device_status(device memory d) public view returns(bool) {\n        require(msg.sender == owner);\n        return d.status;\n    }\n    \n    // changing the device's status\n    \n    function change_device_status(device memory d) public view {\n        require(msg.sender == owner);\n        if(d.status==true) {\n            d.status = false;\n        }\n        else {\n            d.status = true;\n        }\n    }\n    \n    function device_mapping_test(uint _id) public {\n        emit device_event(Devices[_id].name);\n    }\n\n}",
  "sourcePath": "C:\\Users\\Bellamkonda Pavan\\Desktop\\Blockchain Project\\truffle\\contracts\\ControlDevices.sol",
  "compiler": {
    "name": "solc",
    "version": "0.8.12+commit.f00d7308.Emscripten.clang"
  },
  "schemaVersion": "3.4.7",
  "updatedAt": "2022-04-19T16:19:16.161Z",
  "devdoc": {
    "kind": "dev",
    "methods": {},
    "version": 1
  },
  "userdoc": {
    "kind": "user",
    "methods": {},
    "version": 1
  }
}