{
  "contractName": "DataDevices",
  "abi": [
    {
      "inputs": [],
      "stateMutability": "nonpayable",
      "type": "constructor"
    },
    {
      "inputs": [
        {
          "internalType": "uint256",
          "name": "",
          "type": "uint256"
        }
      ],
      "name": "Devices",
      "outputs": [
        {
          "internalType": "string",
          "name": "name",
          "type": "string"
        },
        {
          "internalType": "uint256",
          "name": "data",
          "type": "uint256"
        }
      ],
      "stateMutability": "view",
      "type": "function"
    },
    {
      "inputs": [],
      "name": "id",
      "outputs": [
        {
          "internalType": "uint256",
          "name": "",
          "type": "uint256"
        }
      ],
      "stateMutability": "view",
      "type": "function"
    },
    {
      "inputs": [],
      "name": "owner",
      "outputs": [
        {
          "internalType": "address",
          "name": "",
          "type": "address"
        }
      ],
      "stateMutability": "view",
      "type": "function"
    },
    {
      "inputs": [
        {
          "internalType": "string",
          "name": "device_name",
          "type": "string"
        }
      ],
      "name": "add_device",
      "outputs": [],
      "stateMutability": "nonpayable",
      "type": "function"
    },
    {
      "inputs": [
        {
          "internalType": "uint256",
          "name": "_id",
          "type": "uint256"
        }
      ],
      "name": "remove_device",
      "outputs": [],
      "stateMutability": "nonpayable",
      "type": "function"
    },
    {
      "inputs": [
        {
          "components": [
            {
              "internalType": "string",
              "name": "name",
              "type": "string"
            },
            {
              "internalType": "uint256",
              "name": "data",
              "type": "uint256"
            }
          ],
          "internalType": "struct DataDevices.device",
          "name": "d",
          "type": "tuple"
        }
      ],
      "name": "get_deviceData",
      "outputs": [
        {
          "internalType": "uint256",
          "name": "",
          "type": "uint256"
        }
      ],
      "stateMutability": "view",
      "type": "function"
    },
    {
      "inputs": [
        {
          "components": [
            {
              "internalType": "string",
              "name": "name",
              "type": "string"
            },
            {
              "internalType": "uint256",
              "name": "data",
              "type": "uint256"
            }
          ],
          "internalType": "struct DataDevices.device",
          "name": "d",
          "type": "tuple"
        },
        {
          "internalType": "uint256",
          "name": "data",
          "type": "uint256"
        }
      ],
      "name": "update_deviceData",
      "outputs": [],
      "stateMutability": "view",
      "type": "function"
    }
  ],
  "bytecode": "0x6080604052600060015534801561001557600080fd5b50336000806101000a81548173ffffffffffffffffffffffffffffffffffffffff021916908373ffffffffffffffffffffffffffffffffffffffff160217905550610ab2806100656000396000f3fe608060405234801561001057600080fd5b506004361061007d5760003560e01c8063af640d0f1161005b578063af640d0f146100ec578063be5fb2121461010a578063d709883e14610126578063f0dbdc6f146101575761007d565b80630e34137c146100825780632035be621461009e5780638da5cb5b146100ce575b600080fd5b61009c6004803603810190610097919061069e565b610173565b005b6100b860048036038101906100b39190610793565b610235565b6040516100c591906107eb565b60405180910390f35b6100d661029c565b6040516100e39190610847565b60405180910390f35b6100f46102c0565b60405161010191906107eb565b60405180910390f35b610124600480360381019061011f9190610862565b6102c6565b005b610140600480360381019061013b9190610862565b61034f565b60405161014e929190610917565b60405180910390f35b610171600480360381019061016c9190610947565b6103fb565b005b60008054906101000a900473ffffffffffffffffffffffffffffffffffffffff1673ffffffffffffffffffffffffffffffffffffffff163373ffffffffffffffffffffffffffffffffffffffff16146101cb57600080fd5b60405180604001604052808281526020016000815250600260006001600081546101f4906109d2565b91905081905581526020019081526020016000206000820151816000019080519060200190610224929190610461565b506020820151816001015590505050565b60008060009054906101000a900473ffffffffffffffffffffffffffffffffffffffff1673ffffffffffffffffffffffffffffffffffffffff163373ffffffffffffffffffffffffffffffffffffffff161461029057600080fd5b81602001519050919050565b60008054906101000a900473ffffffffffffffffffffffffffffffffffffffff1681565b60015481565b60008054906101000a900473ffffffffffffffffffffffffffffffffffffffff1673ffffffffffffffffffffffffffffffffffffffff163373ffffffffffffffffffffffffffffffffffffffff161461031e57600080fd5b600260008281526020019081526020016000206000808201600061034291906104e7565b6001820160009055505050565b600260205280600052604060002060009150905080600001805461037290610a4a565b80601f016020809104026020016040519081016040528092919081815260200182805461039e90610a4a565b80156103eb5780601f106103c0576101008083540402835291602001916103eb565b820191906000526020600020905b8154815290600101906020018083116103ce57829003601f168201915b5050505050908060010154905082565b60008054906101000a900473ffffffffffffffffffffffffffffffffffffffff1673ffffffffffffffffffffffffffffffffffffffff163373ffffffffffffffffffffffffffffffffffffffff161461045357600080fd5b808260200181815250505050565b82805461046d90610a4a565b90600052602060002090601f01602090048101928261048f57600085556104d6565b82601f106104a857805160ff19168380011785556104d6565b828001600101855582156104d6579182015b828111156104d55782518255916020019190600101906104ba565b5b5090506104e39190610527565b5090565b5080546104f390610a4a565b6000825580601f106105055750610524565b601f0160209004906000526020600020908101906105239190610527565b5b50565b5b80821115610540576000816000905550600101610528565b5090565b6000604051905090565b600080fd5b600080fd5b600080fd5b600080fd5b6000601f19601f8301169050919050565b7f4e487b7100000000000000000000000000000000000000000000000000000000600052604160045260246000fd5b6105ab82610562565b810181811067ffffffffffffffff821117156105ca576105c9610573565b5b80604052505050565b60006105dd610544565b90506105e982826105a2565b919050565b600067ffffffffffffffff82111561060957610608610573565b5b61061282610562565b9050602081019050919050565b82818337600083830152505050565b600061064161063c846105ee565b6105d3565b90508281526020810184848401111561065d5761065c61055d565b5b61066884828561061f565b509392505050565b600082601f83011261068557610684610558565b5b813561069584826020860161062e565b91505092915050565b6000602082840312156106b4576106b361054e565b5b600082013567ffffffffffffffff8111156106d2576106d1610553565b5b6106de84828501610670565b91505092915050565b600080fd5b600080fd5b6000819050919050565b610704816106f1565b811461070f57600080fd5b50565b600081359050610721816106fb565b92915050565b60006040828403121561073d5761073c6106e7565b5b61074760406105d3565b9050600082013567ffffffffffffffff811115610767576107666106ec565b5b61077384828501610670565b600083015250602061078784828501610712565b60208301525092915050565b6000602082840312156107a9576107a861054e565b5b600082013567ffffffffffffffff8111156107c7576107c6610553565b5b6107d384828501610727565b91505092915050565b6107e5816106f1565b82525050565b600060208201905061080060008301846107dc565b92915050565b600073ffffffffffffffffffffffffffffffffffffffff82169050919050565b600061083182610806565b9050919050565b61084181610826565b82525050565b600060208201905061085c6000830184610838565b92915050565b6000602082840312156108785761087761054e565b5b600061088684828501610712565b91505092915050565b600081519050919050565b600082825260208201905092915050565b60005b838110156108c95780820151818401526020810190506108ae565b838111156108d8576000848401525b50505050565b60006108e98261088f565b6108f3818561089a565b93506109038185602086016108ab565b61090c81610562565b840191505092915050565b6000604082019050818103600083015261093181856108de565b905061094060208301846107dc565b9392505050565b6000806040838503121561095e5761095d61054e565b5b600083013567ffffffffffffffff81111561097c5761097b610553565b5b61098885828601610727565b925050602061099985828601610712565b9150509250929050565b7f4e487b7100000000000000000000000000000000000000000000000000000000600052601160045260246000fd5b60006109dd826106f1565b91507fffffffffffffffffffffffffffffffffffffffffffffffffffffffffffffffff821415610a1057610a0f6109a3565b5b600182019050919050565b7f4e487b7100000000000000000000000000000000000000000000000000000000600052602260045260246000fd5b60006002820490506001821680610a6257607f821691505b60208210811415610a7657610a75610a1b565b5b5091905056fea2646970667358221220769301fa242fdec8973353de2a95a1345e7d6d51a55dbd47647b450c9896e53d64736f6c634300080c0033",
  "immutableReferences": {},
  "source": "// SPDX-License-Identifier: MIT\npragma solidity ^0.8.12;\n\ncontract DataDevices {\n\n    address public owner;  \n    uint public id = 0;\n\n    // sensor that will contains name and data sent by our device\n\n    struct device{\n        string name;\n        uint data;\n    }\n\n    // map to store our data with device info in it\n    \n    mapping(uint=>device) public Devices;\n\n   // setting the owner\n\n    constructor() {\n       owner = msg.sender;\n    }\n\n    // adding the device to the map\n\n    function add_device(string memory device_name) public{\n        require(msg.sender == owner);\n        Devices[++id] = device(device_name, 0);\n    }\n\n    // removing the device \n\n    function remove_device(uint _id) public{\n        require(msg.sender == owner);\n        delete Devices[_id];\n    }\n\n    // fetching device's data \n\n    function get_deviceData(device memory d) public view returns(uint) {\n        require(msg.sender == owner);\n        return d.data;\n    }\n\n    // updating the data\n\n    function update_deviceData(device memory d, uint data) public view {\n        require(msg.sender == owner);\n        d.data = data;\n    }\n}",
  "sourcePath": "C:\\Users\\Bellamkonda Pavan\\Desktop\\Blockchain Project\\truffle\\contracts\\DataDevices.sol",
  "compiler": {
    "name": "solc",
    "version": "0.8.12+commit.f00d7308.Emscripten.clang"
  },
  "schemaVersion": "3.4.7",
  "updatedAt": "2022-04-19T16:19:16.167Z",
  "devdoc": {
    "kind": "dev",
    "methods": {},
    "version": 1
  },
  "userdoc": {
    "kind": "user",
    "methods": {},
    "version": 1
  }
}